:100000000C942A000C9447000C9447000C946F0445
:100010000C9447000C9447000C9447000C94470044
:100020000C9447000C9447000C9447000C94470034
:100030000C9447000C9447000C9447000C94470024
:100040000C9447000C9447000C9447000C9448040F
:100050000C94470011241FBECFE5D4E0DEBFCDBF16
:1000600010E0A0E6B0E0E2E3F9E002C005900D92F6
:10007000A838B107D9F710E0A8E8B0E001C01D9298
:10008000A839B107E1F70E9421010C9497040C9460
:100090000000EF92FF920F931F93CF93DF9300E640
:1000A00010E00F2EF8E8EF2EF0E0FF2EF02DE80123
:1000B0002896F8018081618140E00E94AA03F7013F
:1000C00011927F010E5F1F4F0C171D0791F7DF91F3
:1000D000CF911F910F91FF90EF900895EF92FF92B3
:1000E0000F931F93DF93CF930F92CDB7DEB77B01B2
:1000F000082F10E0F801EE0FFF1FE05AFF4F80813C
:100100006181AE014F5F5F4F0E940C04F801E85718
:10011000FF4F8081882381F48981882331F4F8019D
:10012000E857FF4F108281E016C0F801E857FF4FF3
:1001300081E0808380E00FC08981882331F4F80159
:10014000E857FF4F108281E006C0F801E857FF4FE3
:1001500081E0808380E0F70180830F90CF91DF9171
:100160001F910F91FF90EF90089580E00E943F0350
:100170000895809170000E94FB01809171000E949F
:10018000FB010895682F809172000E944B028091BC
:100190007200813039F41092700080E061E00E94BA
:1001A000E40107C081E08093700080E060E00E947D
:1001B000E4019091720081E0892780937200089594
:1001C000682F809173000E943B0280917300813000
:1001D00041F482E08093710080E063E00E94E401DA
:1001E00007C083E08093710080E062E00E94E40138
:1001F0009091730081E08927809373000895809126
:100200007400882361F0815080937400E5E7F0E08A
:10021000E80FF11D85EB90E060810E94390408959C
:1002200080917400843060F48F5F80937400E5E700
:10023000F0E0E80FF11D85EB90E060810E94390449
:1002400008956F927F928F929F92AF92BF92CF92BA
:10025000DF92EF92FF920F931F93DF93CF9300D023
:1002600000D0CDB7DEB70E9449000E94BF010E94B6
:10027000060280E00E94E00080E00E94C20089EB5C
:1002800090E00E94290480917400E5E7F0E0E80F17
:10029000F11D85EB90E060810E9439040F2EF5E09E
:1002A0009F2EF02D8E010F5F1F4FEE24FF246894C8
:1002B000E1F8EC0EFD1E0F2EF3E0CF2EDD24F02D25
:1002C000CC0EDD1EAA24BB246894A2F8AC0EBD1E81
:1002D0000F2EF8E66F2EF0E07F2EF02D0F2EF5E0BA
:1002E0008F2EF02D80E0B8010E946E0081E0B701F2
:1002F0000E946E0082E0B6010E946E0083E0B501AC
:100300000E946E008981882351F09A81992339F0E7
:100310008B81882379F18C81882339F116C081E0A3
:100320009A81911180E09B81992311F090E001C0A6
:1003300092E0892B9C81992329F40F2EF3E09F2EC4
:10034000F02D01C09924982ACDCF892D853050F603
:10035000E92DF0E0EE0FFF1FE60DF71D0190F08193
:10036000E02D80E00995982CBDCF81E09923F1F232
:1003700080E0DCCF81E0911180E092E0DACFEF9273
:10038000FF920F931F93CF93DF93CAE7D0E0EE2441
:10039000FF246894E3F8EC0EFD1E08811981802F7C
:1003A000612F4FEF0E94AA03802F612F4FEF0E9411
:1003B000DB032296CE15DF0581F7DF91CF911F91E8
:1003C0000F91FF90EF9008951F93CF93DF93182F15
:1003D000C62FD0E0FE01EE0FFF1FE658FF4F8081D1
:1003E0006181412F0E94DB03C457DF4F1883DF91E7
:1003F000CF911F910895682FE82FF0E0E457FF4F49
:100400008081809580830E94E4010895EF92FF929D
:100410000F931F93CF93DF931092920000E0FF247D
:1004200010E0EE24C2E8D0E0812F837011F41111A6
:10043000F394043009F40E2D8F2D90E0DC01AA0F07
:10044000BB1FAA0FBB1FA80FB91FAC0FBD1FFD011B
:10045000E00FF11D8C9161814FEF0E94AA031F5F95
:10046000143011F00F5FE0CFDF91CF911F910F910A
:10047000FF90EF900895882331F4E62FF0E0EF56D7
:10048000FF4F10820895813029F4E62FF0E0EF56F7
:10049000FF4F80830895882331F4E62FF0E0ED5676
:1004A000FF4F10820895813029F4E62FF0E0ED56D9
:1004B000FF4F808308958130C9F0813030F0823061
:1004C00031F1833009F043C033C070E0FB01EE0F1F
:1004D000FF1FEE0FFF1F6E0F7F1FFB01EE57FF4F39
:1004E00094818281892B80939000089570E0FB01B4
:1004F000EE0FFF1FEE0FFF1F6E0F7F1FFB01EE576A
:10050000FF4F91818481892B80939000089570E042
:10051000FB01EE0FFF1FEE0FFF1F6E0F7F1FFB0192
:10052000EE57FF4F93818181892B8093900008952E
:1005300070E0FB01EE0FFF1FEE0FFF1FE60FF71F2E
:10054000EE57FF4F93818281892B8093900008950D
:10055000833009F445C0843028F4813009F18230B9
:1005600070F50DC0853009F45BC0853008F447C0D4
:10057000863009F464C0873009F080C071C070E033
:10058000FB01EE0FFF1FEE0FFF1F6E0F7F1FFB0122
:10059000EE57FF4F92818481892B809390000895BC
:1005A00070E0FB01EE0FFF1FEE0FFF1F6E0F7F1FAE
:1005B000FB01EE57FF4F848180939000089570E017
:1005C000FB01EE0FFF1FEE0FFF1F6E0F7F1FFB01E2
:1005D000EE57FF4F91818481892B8093900008957D
:1005E00070E0FB01EE0FFF1FEE0FFF1F6E0F7F1F6E
:1005F000FB01EE57FF4F818180939000089570E0DA
:10060000FB01EE0FFF1FEE0FFF1F6E0F7F1FFB01A1
:10061000EE57FF4F91818381892B8093900008953D
:1006200070E0FB01EE0FFF1FEE0FFF1F6E0F7F1F2D
:10063000FB01EE57FF4F838180939000089570E097
:10064000FB01EE0FFF1FEE0FFF1F6E0F7F1FFB0161
:10065000EE57FF4F93818281892B809390000895FC
:1006600070E0FB01EE0FFF1FEE0FFF1F6E0F7F1FED
:10067000FB01EE57FF4F82818093900008951F93F6
:10068000CF93DF93682FC82FD0E0FE01EE0FFF1F3E
:10069000EE0FFF1FEC0FFD1FEE57FF4F1081FE0105
:1006A000EF56FF4F8081813041F5809192000E948A
:1006B0005B02812F6FEF409190000E94DB03CD56CB
:1006C000DF4F8881813029F4909192009F5F909351
:1006D000920090919200943010F010929200882332
:1006E000A9F580919200882321F081508093920097
:1006F0002DC083E08093920029C0882339F5809132
:1007000092000E94A802812F6FEF409190000E94FA
:10071000DB03CD56DF4F8881813029F49091920020
:100720009F5F9093920090919200983011F41092F4
:100730009200882359F480919200882321F08150FF
:100740008093920003C087E080939200DF91CF9165
:100750001F910895813089F0813028F08230B9F0FE
:10076000833041F51EC08AB3962F909589238ABBAA
:100770008AB36423682B6ABB089587B3962F90953C
:10078000892387BB87B36423682B67BB089584B331
:10079000962F9095892384BB84B36423682B64BB14
:1007A000089581B3962F9095892381BB81B36423EB
:1007B000682B61BB0895813089F0813028F0823048
:1007C000B9F0833041F51EC08BB3962F90958923E5
:1007D0008BBB8BB36423682B6BBB089588B3962FB8
:1007E0009095892388BB88B36423682B68BB0895E0
:1007F00085B3962F9095892385BB85B36423682B99
:1008000065BB089582B3962F9095892382BB82B3EE
:100810006423682B62BB0895813061F0813028F039
:10082000823069F08330A1F40FC089B36823FA01E4
:100830006083089586B36823FA016083089583B3C3
:100840006823FA016083089580B36823FA01608306
:1008500008957894909397008093960083EF8CBFCF
:1008600089B7826089BF12BE13BE83B78D6083BF14
:1008700008957894909395008093940063BD89B710
:10088000806889BF14BC15BC85B58F6085BD08958F
:100890001F920F920FB60F9211242F933F934F93F5
:1008A0005F936F937F938F939F93AF93BF93EF93D8
:1008B000FF93E0919600F09197000995FF91EF91D9
:1008C000BF91AF919F918F917F916F915F914F9168
:1008D0003F912F910F900FBE0F901F9018951F9270
:1008E0000F920FB60F9211242F933F934F935F9364
:1008F0006F937F938F939F93AF93BF93EF93FF93E8
:100900007894E0919400F09195000995FF91EF9112
:10091000BF91AF919F918F917F916F915F914F9117
:100920003F912F910F900FBE0F901F901895F89444
:02093000FFCFF7
:1009320003010302030403081001FF00E000C200E8
:100942000002010104FE7F3F1F0F010101020104A9
:08095200010800010204080085
:00000001FF
